:020000040800F2
:1000000018090020ED0100086B1A00080F170008FE
:10001000691A0008490300081B22000800000000BC
:100020000000000000000000000000006F1A00083F
:10003000BD030008000000006D1A0008711A0008D6
:10004000070200080702000807020008070200086C
:10005000070200080702000807020008070200085C
:10006000070200080702000807020008070200084C
:10007000070200080702000807020008070200083C
:10008000070200080702000807020008070200082C
:10009000070200080702000807020008070200081C
:1000A000070200080702000807020008070200080C
:1000B00007020008070200080702000807020008FC
:1000C00007020008070200080702000807020008EC
:1000D00007020008070200083D1F0008491F00082A
:1000E00007020008070200080702000807020008CC
:1000F00007020008070200080702000807020008BC
:1001000007020008070200080702000807020008AB
:10011000070200080702000807020008070200089B
:10012000070200080702000807020008070200088B
:10013000070200080702000807020008070200087B
:10014000070200080702000807020008070200086B
:10015000070200080702000807020008070200085B
:10016000070200080702000807020008070200084B
:10017000070200080702000800000000000000005D
:10018000070200080702000807020008070200082B
:10019000070200080702000800000000070200082C
:1001A000070200080702000800000000000000002D
:1001B000070200080000000000000000070200081D
:1001C00007020008070200080702000807020008EB
:1001D0000702000807020008DFF80CD000F0A2F8C0
:1001E00000480047FD2600081809002006488047FF
:1001F00006480047FEE7FEE7FEE7FEE7FEE7FEE70C
:10020000FEE7FEE7FEE7FEE7151B0008D901000840
:100210002DE9F05F0546002092469B46884606463B
:10022000814640241BE0284641464746224600F0CE
:1002300069F853465A46C01A914110D311461846E0
:10024000224600F050F82D1A67EB01084F4622466F
:100250000120002100F047F817EB00094E41201E55
:10026000A4F10104DFDC484631462A464346BDE896
:10027000F09F40EA01039B0703D009E008C9121F61
:1002800008C0042AFAD203E011F8013B00F8013B50
:10029000521EF9D27047D2B201E000F8012B491E7C
:1002A000FBD270470022F6E710B513460A46044613
:1002B0001946FFF7F0FF204610BD30B50B4601464A
:1002C00000202022012409E021FA02F59D4205D3F5
:1002D00003FA02F5491B04FA02F52844151EA2F19F
:1002E0000102F1DC30BD202A04DB203A00FA02F1E1
:1002F000002070479140C2F1200320FA03F3194314
:1003000090407047202A04DB203A21FA02F00021B5
:10031000704721FA02F3D040C2F120029140084315
:1003200019467047064C074D06E0E06840F00103AF
:1003300094E8070098471034AC42F6D3FFF750FF1B
:10034000042A0008242A0008FEE700000E4801687D
:1003500021F080710160016841F0807101600B48FB
:10036000016821F001010160016841F001010160B3
:100370000021416000BF00BF00BF406808B10020FD
:100380007047012070470000FCED00E0001000E025
:1003900031B5084D6C6800F03BFE0749B0FBF1F049
:1003A00000994843009068680099001B8842FAD37E
:1003B00038BD0000001000E040420F00704790F888
:1003C0003510022903D080214165012070470521A5
:1003D00080F835100068016821F0010101600020FB
:1003E0007047000070B5044600F0EAF80546601C4E
:1003F00002D004480078044400F0E2F8401BA04218
:10040000FAD370BD140000202DE9F84FDFF874B165
:1004100000224FF001084FF0030A4FF00F090BF1D3
:10042000040E00BF0B6808FA02F42340A3426ED109
:100430004D68022D01D0122D0ED1D50800EB850C90
:10044000DCF820505607F70E09FA07F6B5430E6997
:10045000BE402E43CCF82060066855000F790AFA9A
:1004600005FC07F0030726EA0C06AF403743076098
:100470004E68012E05D0022E03D0112E01D0122E6F
:100480000ED18668CF6826EA0C06AF4037438760F6
:100490004668A6430C79C4F3001494403443446086
:1004A000C4688E6824EA0C04AE402643C6604C68DB
:1004B000E40060D5344C256845F480452560246807
:1004C00022F0030504F480440094304C2E19D6F831
:1004D000084895072F0F09FA07F5AC432C4DA842A1
:1004E00001D100251FE02B4DA84201D101251AE0C2
:1004F000294DA84201D1022515E0284DA84201D17D
:10050000032510E0264DA84202D104250BE032E07D
:10051000244DA84201D1052505E0234DA84201D173
:10052000062500E00725BD402543C6F80858DBF83E
:1005300000405D464E689C43F60300D51C432C608A
:10054000DEF8004075464E689C43B60300D51C4358
:100550002C600C4D08352C684E689C43F60200D583
:100560001C432C60074D0C352C684E689C43B6022A
:1005700000D51C432C60521C102AFFF453AFBDE879
:10058000F88F0000003C0140443802400030014038
:10059000000002400004024000080240000C02403B
:1005A0000010024000140240001802400069084098
:1005B00000D0012070470AB1816170470904FBE750
:1005C00001488068704700001400002070B50400E6
:1005D0001BD094F83D00002520B984F83C502046FB
:1005E00000F044F9242084F83D002068016821F0DF
:1005F0000101016000F012FD4D4A6168914201D88D
:100600004C4900E04C49884201D2012070BD4B4961
:100610002368B0FBF1F15E6826F03F060E435E6092
:100620006368934206D94FF4967359434FF47A7333
:10063000B1FBF3F12368491C1E6A26F03F063143E3
:1006400019626168914210D84900401EB0FBF1F276
:10065000521CC2F30B02042A01D2042022E0B0FB98
:10066000F1F0401CC0F30B001CE0A368F3B301EBF6
:10067000C10202EB0116421EB2FBF6F2521C42F41A
:100680008042120549D093B301EBC10202EB011184
:10069000401EB0FBF1F0401CC0F30B0040F4804062
:1006A00040F400402168CA694CF6FF739A43104336
:1006B000C861D4E90701084321680A6822F0C00232
:1006C00010430860D4E9030101432068826848F2BE
:1006D000FF339A4311438160D4E90501084321683F
:1006E000CA6822F0FF021043C86001E00EE016E085
:1006F0002068016841F0010101602564202084F830
:100700003D00256384F83E50002070BD01EB41069A
:10071000421EB2FBF6F2521CB3E70120C2E701EB26
:100720004101401EB0FBF1F0401CC0F30B00B7E7E5
:10073000A086010080841E0000093D0040420F0099
:100740002DE9F84F1F4690468A460446DDF828906A
:10075000FFF736FF054694F83D0020287FD1192386
:10076000012240492046009501F054F8002876D136
:1007700094F83C00012872D0012084F83C002068E5
:100780000168C90703D1016841F0010101602068D7
:10079000016821F400610160212084F83D001020EF
:1007A00084F83E0000262664C4F824806785608DA6
:1007B00020852D48E0622B464A465146204600F0EF
:1007C000BFFF90B9206841698069009036E02A46F1
:1007D0004946204601F09DF850B1206C042804D110
:1007E0002068016841F4007101600120BDE8F88FC4
:1007F000606A216800780861606A401C6062618DEF
:10080000491E6185218D491E89B22185226853695F
:10081000DB435B070BD451B100781061606A401C68
:100820006062608D401E6085208D401E20852A46B6
:100830004946204600F0C8FF0028CED1208D002870
:10084000C5D154F83D0B016841F4007101602020CE
:1008500004F81E09E67766770020C7E7FFE7022065
:10086000C4E70000020010000000FFFF10B586B0D2
:10087000044614216846FFF715FD14492068884294
:1008800021D11348016841F0020101600068694606
:1008900000F0020005904FF41070009012200190BB
:1008A0000120029003200390042004900948FFF7E0
:1008B000ABFD07481030016841F400110160006889
:1008C00000F40010059006B010BD00000054004078
:1008D0003038024000040240024881680278114426
:1008E00081607047140000200B4810B5016841F486
:1008F00000710160016841F480610160016841F4A8
:1009000080710160032000F06FF8002000F006F80D
:1009100000F024F8002010BD003C024070B50D4DE1
:1009200004464FF47A712878B1FBF0F00A4909685F
:10093000B1FBF0F000F09AFD48B9102C07D200226C
:100940002146501E00F030F800206C6070BD012080
:1009500070BD000014000020200000200A4808B5E7
:10096000016841F480410160006800F4804000901B
:100970000548001F016841F080510160006800F0E7
:100980008050009008BD000044380240002809DB78
:1009900000F01F02012191404009800000F1E02099
:1009A000C0F8001170470000F0B40E4B1B680C46F5
:1009B000C3F30223C3F10705042D00D90425191D33
:1009C000072901D2002300E0DB1E012606FA05F10B
:1009D000491E214099409E40761E16403143F0BC8E
:1009E00001F030BC0CED00E0064900F00702086899
:1009F0004FF6FF03184040EA0220034A1043086004
:100A0000704700000CED00E00000FA0501220168CB
:100A1000C0F8FC23002280F8F423886940F00060CD
:100A20008861486D024A1043486500207047000005
:100A3000030000102DE9F0418AB0040005D094F8BD
:100A4000BD032668002520B108E001200AB0BDE8FA
:100A5000F08184F8BC53204600F064F8032084F849
:100A6000BD03F06BC00500D42561206801F096FB42
:100A700004F11001282288466846FFF7FAFB94E843
:100A80000F0001F067FA0226C8BB0021206801F0C0
:100A9000ADFB002001270EE0C0EBC00104EB81019B
:100AA00081F83D7001F83C0FC880CD708D60CD603D
:100AB000401CC0B24D6161688142EDD8002011E058
:100AC000C0EBC00104EB810181F8FD5181F8FC010C
:100AD00081F8FF51C1F80452C1F80852401CC0B25D
:100AE000C1F8105261688142EAD82822414668461E
:100AF000FFF7BFFB94E80F0001F08EFA10B184F805
:100B0000BD63A2E784F8385084F8BD73606A012899
:100B100002D12046FFF77AFF206801F071FA002029
:100B200094E7000030B587B0044614216846FFF70B
:100B3000B9FB2068B0F1A04F30D1194800240168FA
:100B400041F0010101600068164D00F001000590C0
:100B50004FF4E85000900220CDE9010403200390F7
:100B60000A20049069462846FFF74EFC6815CDE937
:100B70000004694628460294FFF746FC0848001D19
:100B8000016841F08001016005481430016841F4BA
:100B900080410160006800F48040059007B030BDDE
:100BA00030380240000002402DE9F84F044600783A
:100BB0000027C34DC00708D02868E16920F0C06055
:100BC00008432860E06900B901272078800708D52C
:100BD0002868216A20F0C05008432860206A00B9C4
:100BE0000127208881046FF0FF0015D52968A26CC9
:100BF00021F4401111432960A16C19B1B1F5001F16
:100C000002D009E0012707E02968626921F4F85160
:100C100000EB0222114329602188490415D5296877
:100C2000E26C21F4400111432960E16C19B1B1F586
:100C3000000F02D009E0012707E02968626921F46A
:100C4000F85100EB02200143296020784FF00009A1
:100C5000000755D59A484C38016841F08051016031
:100C60000068DFF8608200F080500090D8F8001033
:100C700041F48071C8F80010FFF7A2FC064604E0BA
:100C8000FFF79EFC801B02286FD8D8F80000C00533
:100C9000F6D58B4E1C3E306810F440701FD0A18CEE
:100CA00001F4407181421AD03068012220F4407171
:100CB00085480260C0F8009031603068C0070ED0EF
:100CC000FFF77EFC804641F2883A05E0FFF778FCAA
:100CD000A0EB0801514548D830688007F6D5616A15
:100CE0007748C1F301228438032A36D0016821F401
:100CF000F81101603068A18CC1F30B01084330602A
:100D00002078DFF8C8A1400703D594F85410CAF83A
:100D1000E01120786E4EC00605D53068E16A20F4F7
:100D200040000843306020784FF00068800609D505
:100D30003068216B20F0006008433060206B404534
:100D400000D101272078400605D53068A16A20F03F
:100D500080500843306067B908E002685D4B22F4B8
:100D6000F81219400A430260C4E773E02068802843
:100D700077D1DFF864B1CBF86890FFF721FC504FD2
:100D800081468C3F06E000BFFFF71AFCA0EB09008C
:100D900002285FD838680001F6D4216DCAF8D8104F
:100DA00020684E49C20701D0E2697AB1820701D5B5
:100DB000226A5AB1820602D5226B424506D040060D
:100DC0000FD5A06A68B9206B40450AD1D4E9010269
:100DD00040EA8210227B237C120642EA037210430F
:100DE00008602068820401D5A26C1AB1400415D5B0
:100DF000E06C98B90868D4E9012342EA8312C0F391
:100E00000360237C000640EA037002430A602868FE
:100E1000A26920F01F00521E1043286020780006AF
:100E20000AD5D4E9010240EA8210227B237C120613
:100E300042EA0372104308600120CBF86800FFF714
:100E4000BFFB80460AE000BFFFF7BAFBA0EB08003B
:100E5000022803D90320BDE8F88F02E038680001BA
:100E6000F2D52088C00505D52868616B20F00040C8
:100E7000084328602088800505D52868A16B20F4E8
:100E80000040084328602088400505D52868E16BAC
:100E900020F00040084328602088000505D5286818
:100EA000216C20F48040084328602088C00405D5C8
:100EB0003068616C20F04040084330600020CAE791
:100EC0008C38024000700040400E474200104742FC
:100ED00094380240FFFCFF0F000047428438024074
:100EE0002DE9F0470E46050065D0DFF81481D8F8EB
:100EF0000000F7B200F00F00B04207D288F800708F
:100F0000D8F8000000F00F00B04254D128683D4CE2
:100F1000810712D5400703D5206840F4E0502060D7
:100F20002878000703D5206840F4604020602068DE
:100F3000A96820F0F000084320602878C0072DD071
:100F4000304968680839012812D0022813D00328D4
:100F500011D00968890700292DDA216821F00301E1
:100F600001432160FFF72CFB814641F2883A0EE0F5
:100F700009688903EFE709688901ECE7FFF720FBBF
:100F8000A0EB0901514502D90320BDE8F087206894
:100F9000696800F00C00B0EB810FEFD1D8F80010B9
:100FA000404601F00F01B14207D90770006800F018
:100FB0000F00B04201D00120E7E72878400705D5AF
:100FC0002068E96820F4E050084320602878000792
:100FD00006D52068296920F4604040EAC1002060FD
:100FE00000F03CF82168084AC1F30311515CC84085
:100FF000064908600020FFF791FC0020C5E70000CB
:10100000003C024008380240EC2900082000002083
:10101000014800687047000020000020044805498E
:1010200000680968044AC1F38221515CC8407047D6
:101030002000002008380240FC2900080448054927
:1010400000680968044AC1F34231515CC8407047E6
:101050002000002008380240FC290008154810B57F
:10106000006810F00C02144813D04110042A0FD06D
:10107000082A0ED10F4C241F2268236802F03F0279
:101080005B0207D52068C0F38810A0FB010106E0D1
:10109000084610BD2168C1F38811A1FB000100239F
:1010A000FFF7B6F82168C1F30141491C4900B0FBC4
:1010B000F1F010BD083802400024F400F0B51F4CD8
:1010C00016460D461D4B002102220327283C00280E
:1010D000186887B019D040F004001860186800F054
:1010E0000400059010020090CDE90121CDE90371C3
:1010F00069461348FFF788F9206845EAC60120F0E1
:1011000078400843206007B0F0BD40F0010018604F
:10111000186800F0010005904FF480700090CDE950
:101120000121CDE9037169460648FFF76DF9206892
:10113000354320F0EC602843E4E7000030380240FB
:1011400000080240000002402DE9F84F05460078F3
:10115000DFF800B3C04CC0074AD0DBF80010584697
:10116000C1F38101012908D00068C0F38100022881
:101170000AD1201D0068400206D52068800337D5BB
:101180006868002872D033E06868B0F5803F10D0FE
:10119000B0F5A02F206810D020F4803020602068A7
:1011A00020F4802020606868A8B1FFF709FA06469D
:1011B0000DE0206840F48030F4E740F480202060A7
:1011C000F7E700BFFFF7FCF9801B64286FD82068A1
:1011D0008003F7D50CE0FFF7F3F9064605E000BF02
:1011E000FFF7EEF9801B6428F0D820688003F7D45D
:1011F0002878DFF8688280074FF0000940D5DBF8D7
:101200000010584611F00C0F09D00068C0F381009F
:1012100002280BD18F48001F0068400206D42068C6
:10122000800715D5E868012820D111E0E868B8B139
:101230000120C8F80000FFF7C3F9064605E000BF2B
:10124000FFF7BEF9801B0228C0D820688007F7D5B9
:101250002068296920F0F80040EAC10020600FE012
:10126000C8F80090FFF7ACF9064606E0EFE000BFD3
:10127000FFF7A6F9801B022819D820688007F7D449
:101280002878000722D5734E754869696C3679B1A4
:1012900001210160FFF794F9074604E0FFF790F998
:1012A000C01B022803D830688007F7D50EE089E01C
:1012B000C0F80090FFF784F9074604E0FFF780F9D3
:1012C000C01B02287ED830688007F7D428784007F2
:1012D00068D5DFF880A100270AF1380ADAF80000A3
:1012E000C0000BD4DAF8001041F08051CAF80010A9
:1012F000DAF80000012700F080500090594E306865
:10130000C00510D4306840F480703060FFF758F9A1
:10131000009005E0FFF754F90099401A022851D8CF
:101320003068C005F6D54B4EA868683601280FD046
:101330000528306810D020F001003060306820F0BF
:1013400004003060A868B8B1FFF73AF900900FE0E8
:10135000306840F00100F4E740F004003060F7E747
:10136000FFF72EF90099411A41F28830814266D880
:1013700030688007F4D50EE0FFF722F9009007E00F
:10138000FFF71EF90099411A41F28830814256D880
:1013900030688007F4D42FB1DAF8001021F08051C2
:1013A000CAF80010A869D0B3DBF80010C1F38101BE
:1013B00002294CD00228484607D0C8F86000FFF741
:1013C000FFF800E03BE005463CE04746C8F8600017
:1013D000FFF7F6F8064604E0FFF7F2F8801B022854
:1013E0002DD820688001F7D4F5E907010843E968A2
:1013F0001D4A490802EB0141AA6841EA82110843EB
:10140000297C40EA0160297D40EA01711148001FF2
:10141000016001203866FFF7D3F8054605E014E0C7
:10142000FFF7CEF8401B022809D820688001F7D5C5
:101430000BE000BFFFF7C4F8401B022802D90320CD
:10144000BDE8F88F20688001F4D40020F8E701207F
:10145000F6E700000838024000380240000047422A
:10146000800E4742007000400000FFFF10B5401E94
:10147000B0F1807F01D3012010BD4FF0E024606106
:101480000F21601700F0DEFE0020A0610720206120
:10149000002010BD7047000070B502680446106857
:1014A000D168536910F00F0F50D003F0010501F41B
:1014B000907635435DD0C20705D0CA0503D5E26BEF
:1014C00042F00102E263420705D5DA0703D0E26B7E
:1014D00042F00202E263820705D5DA0703D0E26B2D
:1014E00042F00402E263020705D5DA0703D0E26B9B
:1014F00042F00802E263E26B002A33D0800604D592
:10150000880602D5204600F045FB20684069E16B63
:10151000C0F38010090700D428B3204600F02CFB4C
:101520002068416949061AD5416921F040014161AD
:10153000606BA0B11B490165606BFEF740FF00289E
:1015400010D0606B016DBDE870400847830610D570
:101550008B060ED52046BDE8704000F01BBB204630
:10156000FFF798FF70BD2046FFF794FF0020E0636F
:1015700070BD030606D50B0604D52046BDE87040B5
:1015800000F0AABC4006F3D54806F1D5D168204644
:1015900021F04001D160202184F8391000F0B6F824
:1015A00070BD0000691B000870B5040004D094F8F9
:1015B0003900002510B106E0012070BD84F83850D4
:1015C000204600F023F8242084F839002068C16800
:1015D00021F40051C160204600F028FB2068016919
:1015E00021F4904101612068416921F02A014161A3
:1015F0002068C16841F40051C160E563202084F88F
:10160000390084F83A00002070BD0000F0B587B0C2
:10161000044614216846FEF745FE2848264F2668F2
:10162000264910380222012303240725BE421DD17A
:101630000E6846F400360E60096801F40031059129
:10164000016841F0010101600068694600F0010095
:1016500005900C208DE83D001948FEF7D5FE0022CC
:1016600011462620FFF7A0F9262020E0154FBE42A4
:101670001FD10E6846F480260E60096801F48021AF
:101680000591016841F0080101600068694600F0B9
:10169000080005904FF440708DE83D000A48FEF7C1
:1016A000B3FE002211462720FFF77EF92720FFF71F
:1016B0006DF907B0F0BD0000004400404038024022
:1016C0000000024000480040000C0240704790F8C3
:1016D0003930202B18D1A9B1A2B190F83830012BA4
:1016E00012D001628284C2840021C163212280F869
:1016F000392080F838100068C16841F08001C1606D
:101700000020704701207047022070477047FEE7B5
:1017100001684A69D24352050FD46FF480624A616E
:10172000002140F8301F202242738173026942F089
:10173000040202610173012070470020704700001D
:10174000F8B50446C06A1E460D461746082807D05D
:10175000012805D010F5803F02D0206B122804D15B
:101760002068016841F480710160134600224FF047
:1017700001112046009600F04DF808BB2069B0F535
:10178000804F0ED00620216800EAD51040F0F0000E
:10179000086133463A460B49204600F06FF878B9A5
:1017A00002E005F0FE0000E0E8B2216808610549AA
:1017B00033463A46891F204600F060F8002800D0E2
:1017C0000120F8BD0800010070B516460D4604461C
:1017D0000DE02046FFF79CFF08B1012070BD681C9A
:1017E00005D0FEF7EDFE801BA84207D835B1206872
:1017F0004069C0434007ECD4002070BD002044F88D
:10180000300F20216173A073216941F02001216113
:101810002073E2E72DE9F0471E4690460D46044648
:10182000C1F30747DDF8209008E0701C06D0FEF7F2
:10183000C7FEA0EB0900B0420FD876B12068012F97
:1018400018D0806925EA00000004000C14D00021A3
:101850004145EAD00020BDE8F087002044F8300F71
:1018600020216173A073216941F02001216120735F
:101870000120F0E74069E5E70121E9E72DE9F047BC
:101880009A4691460E46044600254FF02008C1F3C3
:10189000074725E020684069C043400514D420680C
:1018A000016841F40071016021686FF48060486153
:1018B000256384F83D8084F83E50206C40F004009D
:1018C000206484F83C501FE0B9F1FF3F08D0FEF7D8
:1018D00077FEA0EB0A0149450CD8B9F1000F09D0F9
:1018E0002068012F13D0806926EA00000004000C54
:1018F0000BD0CFE744F8305F84F80D80A5732069E2
:1019000040F02000206125730120BDE8F087406988
:10191000EAE770B516460D4604460DE02046FFF78F
:10192000F7FE08B1012070BD681C05D0FEF748FE27
:10193000801BA84207D835B120684069C043000623
:10194000ECD4002070BD002044F8300F20216173DA
:10195000A073216941F0200121612073E2E70000BA
:10196000F8B531480025016841F0040101600168C3
:1019700001F004010091016841F0800101600168FB
:1019800001F080010091016841F0020101600168ED
:1019900001F002010091016841F008010160016855
:1019A00001F008010091016841F040010160016807
:1019B00001F040010091016841F0010101600068FF
:1019C0001A4E00F001000090002240213046FEF740
:1019D000F2FD174C4FF40050174F20601548C4E932
:1019E000010521463846FEF70FFD4020206001200A
:1019F000C4E9010521463046E560FEF705FD80207B
:101A0000C4E9000521463046A560FEF7FDFC7015CF
:101A100020600220C4E90105E560214638462561C1
:101A2000BDE8F840FEF7F0BC303802400018024034
:101A300024000020000011100008024009484FF067
:101A4000A04102220160062141600021C0E903217A
:101A500082610122C0E90721C0E90912C0E90B2116
:101A6000FEF7E8BF0C010020FEE7704770477047A3
:101A7000FEF732BF30B5A9B0342116A8FEF712FC2C
:101A8000142123A8FEF70EFC58216846FEF70AFC35
:101A90001E480025016841F080510160006800F097
:101AA000805028901A48016841F440410160006864
:101AB000022400F440402890012016900004179062
:101AC0008001CDE91C4004201E904820CDE91F0470
:101AD0000320CDE9210416A8FFF736FB23A90F2028
:101AE00081E83100E002CDE92605022123A8FFF7B5
:101AF000F7F9202000900C956846FFF755F8002272
:101B000011460120FFF7DAFA29B030BD4038024013
:101B1000007000401048016841F4700101600F48F6
:101B2000016841F0010101600C4A00210832116096
:101B300002680B4B1A400260031D0A4A1A600268D1
:101B400022F48022026005480C30016002495806E8
:101B5000803908607047000088ED00E000380240DE
:101B6000FFFFF6FE1030002410B5806B0021C18508
:101B7000C184FFF78FFC10BD0168CA6822F490721F
:101B8000CA6001684A6922F001024A61202180F896
:101B90003A10704710B590F83A10222901D002206F
:101BA00010BD8168B1F5805F11D00169002901681D
:101BB0001FD0496801F07F03816A4A1C82620B7062
:101BC000C18D491E0904090CC18518D02BE002699A
:101BD000816A002A0268526805D0D2B20A80816AFE
:101BE000491C8162ECE7C2F308020A80816A891C01
:101BF000F7E74A68816A4B1C83620A70E0E7016874
:101C0000CA6822F02002CA600168CA6822F48072A1
:101C1000CA6001684A6922F001024A61202180F805
:101C20003A10FFF753FD002010BD00002DE9F041F0
:101C3000044600680169E26821F4405111430161E2
:101C40002169A068E2690843616911432268084379
:101C5000D16849F20C6399430143D160206841691E
:101C6000A26921F4407111434161E2696425B2F532
:101C7000004F9748974922684FF032083FD08A4278
:101C800001D082427CD1FFF7D9F900EBC00101EB12
:101C9000001061688900B0FBF1F6FFF7CFF900EBA7
:101CA000C00101EB001061688900B0FBF1F0B0FBEE
:101CB000F5F06FF01801484306EB800108EB0110C6
:101CC000B0FBF5F000F0F006FFF7B8F900EBC0014B
:101CD00001EB001061688900B0FBF1F0B0FBF5F09A
:101CE00006EB0016FFF7AAF900EBC00101EB0010AC
:101CF00061688900B0FBF1F7FFF7A0F9D2E08A42F2
:101D000001D082423DD1FFF799F900EBC00101EB10
:101D1000001061684900B0FBF1F0B0FBF5F006017E
:101D2000FFF78CF900EBC00101EB0010616849007E
:101D3000B0FBF1F7FFF782F900EBC00101EB0010F7
:101D400061684900B0FBF1F0B0FBF5F06FF01801ED
:101D5000484307EB800108EBC100B0FBF5F000F051
:101D6000F80006EB4006FFF769F900EBC00101EB54
:101D7000001061684900B0FBF1F7FFF75FF93CE044
:101D800055E0FFF74BF900EBC00101EB0010616873
:101D90004900B0FBF1F0B0FBF5F00601FFF73EF9AA
:101DA00000EBC00101EB001061684900B0FBF1F7E6
:101DB000FFF734F900EBC00101EB00106168490046
:101DC000B0FBF1F0B0FBF5F06FF01801484307EB02
:101DD000800108EBC100B0FBF5F000F0F80006EB65
:101DE0004006FFF71BF900EBC00101EB0010616832
:101DF0004900B0FBF1F7FFF711F900EBC00101EB6F
:101E0000001061684900B0FBF1F0B0FBF5F06FF035
:101E10001801484307EB800108EBC100B0FBF5F067
:101E200000F00700216830448860BDE8F081FFF7CA
:101E3000F5F800EBC00101EB001061688900B0FB10
:101E4000F1F6FFF7EBF800EBC00101EB0010616861
:101E50008900B0FBF1F0B0FBF5F06FF018014843DA
:101E600006EB800108EB0110B0FBF5F000F0F00686
:101E7000FFF7D4F800EBC00101EB001061688900A6
:101E8000B0FBF1F0B0FBF5F006EB0016FFF7C6F87B
:101E900000EBC00101EB001061688900B0FBF1F7B5
:101EA000FFF7BCF800EBC00101EB0010616889008E
:101EB000B0FBF1F0B0FBF5F06FF01801484307EB11
:101EC000800108EB0110B0FBF5F000F00F00A9E76E
:101ED000001401400010014090F83910212901D070
:101EE000022070478168B1F5805F016A0BD04A1CFF
:101EF0000262026809785160C18C491E0904090C0C
:101F0000C1840ED017E009880268C1F3080151604E
:101F100001690029016A02D0491C0162ECE7891CB1
:101F2000FBE70168CA6822F08002CA600068C168E5
:101F300041F04001C1600020704700000148FFF7F8
:101F4000ABBA00008C0000200148FFF7A5BA0000E2
:101F5000CC00002070B5044606990A9E049D0D9899
:101F6000012916D0E06840F04000E060204600F013
:101F70002BF8A16B1EB321F48031A163012D07D191
:101F8000A16841F00601A160A16841F02001A160B3
:101F900070BDA16B21F48031A163E168094A114051
:101FA000E160E16821F44011E160012803D1E068BB
:101FB00040F48010E060204600F006F8DEE741F4CF
:101FC0008031DAE7BFFFBDFF01220C4902E0521C5D
:101FD0008A420BD80369002BF9DA026942F0010248
:101FE0000261012204E0521C8A4201D90320704799
:101FF0000369DB07F7D1002070470000400D0300A4
:1020000010B5D0F8041841F00201C0F804180320FC
:10201000FEF7E8F9002010BD2DE9F04F0025DDE9BD
:102020000BCB0E460446DDF84090099F2846294612
:1020300004EB8002C2F80411401C0F28F8D320469C
:10204000A06BB9F1000F13D040F40012A263084650
:102050008846C4F8000ED4F800182046C4F80018CA
:10206000BCF1010F10D0D0F8001841F0030110E0CE
:1020700020F40012A263206840F040022260206831
:1020800040F080022260E2E7D0F800180BB141F086
:102090000101C0F80018102100F096F800B10125E8
:1020A000204600F081F800B101254046C4F81088B0
:1020B000C4F81488C4F81C8800214FF000634FF066
:1020C00090484FF67F3A14E004EB4112D2F800C971
:1020D000BCF1000F06DA11B1C2F8008904E0C4F8BF
:1020E000003901E0C2F80009C2F81009C2F808A9D5
:1020F000491C8E42E8D8002115E000BF04EB4112D4
:10210000D2F800CBBCF1000F06DA11B1C2F8008B97
:1021100004E0C4F8003B01E0C2F8000BC2F8100B69
:10212000C2F808AB491C8E42E8D8D4F8101821F444
:1021300080722146C4F81028012F08D1134AC1F833
:102140003028D1F83018124A1143C4F83018A06171
:102150006FF0804060611FB9A06940F01000A0617D
:10216000A0690C490843A061BBF1000F03D0A0692E
:1021700040F00800A061B9F1010F03D1A069064940
:102180000843A0612846BDE8F08F000000018000F0
:102190000300010000383C8004000040816821F009
:1021A0000101816000207047002110220261054A70
:1021B000491C914201D9032070470369DB06F7D41B
:1021C00000207047400D03000022202343EA8111C4
:1021D00001610549521C8A4201D9032070470369F5
:1021E0009B06F7D400207047400D030010B5C2686D
:1021F00022F0C042C260012902D029B1012010BDE5
:10220000C16841F0005102E0C16841F08041C16005
:102210003220FEF7E7F8002010BDFEE70FB4084BB0
:1022200010B504A902AA039800F02CF8044602A9EC
:10223000002000F0C8F9204610BC5DF814FB000037
:10224000C72500080907090E002804DB00F1E0207B
:1022500080F80014704700F00F0000F1E02080F8D3
:10226000141D704702E008C8121F08C1002AFAD1E5
:1022700070477047002001E001C1121F002AFBD106
:10228000704700002DE9FF4F8BB0884605460026B9
:1022900006E025280BD0DDE90D1290476D1C761C59
:1022A00028780028F5D10FB03046BDE8F08F002423
:1022B000A146A2460122AE4900E0044315F8013FC1
:1022C000203B02FA03F00842F7D128782A2810D0E0
:1022D0006FF02F022878A0F13001092915D809EBF9
:1022E000890102EB410144F0020400EB01096D1C7D
:1022F000F0E758F8041B5FEA010903D544F40054E1
:10230000C9F1000944F002046D1C28782E2817D169
:1023100015F8010F44F004042A280ED06FF02F02A4
:102320002878A0F1300109290AD80AEB8A0102EBCA
:10233000410100EB010A6D1CF2E758F804AB6D1C7B
:1023400028786C280FD006DC4C2817D068280DD0D0
:102350006A2814D104E0742810D07A280FD10DE037
:1023600044F400140AE044F4801401E044F44014FE
:102370006978814202D104F580146D1C6D1C2878A7
:10238000692865D006DC00288DD0632827D0642812
:1023900006D15DE06E2808D073282AD0752877D042
:1023A000DDE90D129047761CE0E0C4F302500228EC
:1023B00009D003280DD0D8F8001004280DD00E60E5
:1023C00008F10408D2E0D8F80010F217C1E9006261
:1023D000F6E7D8F800100E80F2E70E70F0E718F874
:1023E000041B8DF8001000208DF80100EB46012041
:1023F00003E058F804BB4FF0FF3061074FF00007CF
:1024000001D40AE07F1C57450DDA8742FADB1BF83E
:1024100007100029F6D106E07F1C8742FCDB1BF881
:1024200007100029F8D1DDE90D23A9EB070081464B
:10243000214600F0B1F83044C61904E0DDE90D1280
:102440001BF8010B90477F1EF8D22146484688E0D2
:1024500058F8040BC4F302514FF00A0B032900D1C2
:1024600000B2042900D140B2002802DA40422D21F6
:1024700002E0210505D52B218DF82410012104E06F
:1024800006E0E10710D02021F6E708AF089113E03D
:1024900058F8040BC4F302514FF00A0B032900D182
:1024A00080B2042900D1C0B20021EEE75946FDF701
:1024B00004FF303107F8011D0028F7D1ADEB07000C
:1024C00000F1200B600702D524F4803401E04FF0C6
:1024D000010ADA4502DDAAEB0B0000E0002082468B
:1024E00000EB0B0108980144A9EB01000A90E003FE
:1024F00006D4DDE90D2321460A9800F04DF8064484
:102500004FF0000908E009A911F80900DDE90D12F2
:10251000904709F10109761C08998945F3DBE0032E
:102520000CD5DDE90D2321460A9800F035F8064464
:1025300004E0DDE90D1230209047761CBAF100016D
:10254000AAF1010AF5DC05E0DDE90D1217F8010B2F
:102550009047761CBBF10001ABF1010BF4DC0A984B
:102560002146DDE90D2300F005F806446D1C97E6D1
:10257000092801002DE9F041044600251E461746B2
:10258000880404D405E039462020B0476D1C641E41
:10259000F9D52846BDE8F0812DE9F0410446002533
:1025A0001E469046C80301D5302700E02027880446
:1025B00004D505E041463846B0476D1C641EF9D588
:1025C0002846BDE8F0810A68531C0B601070704704
:1025D00070B52820FDF7DCFE0C4D4FF40064214659
:1025E0002846FDF7E3FF50B95020FDF7D1FE214604
:1025F0002846FDF7DBFF10B1054901200870214690
:102600002846FDF7D3FF0028F9D170BD0004024031
:102610000000002070B500F0D7F90C4D4FF40064B5
:10262000002221462846FDF7C6FF4FF4FA70FDF759
:10263000AFFE012221462846FDF7BDFF1E20FDF713
:10264000A7FEBDE8704000F0AFB9000000040240F2
:1026500010B5022000F00CF8282000F009F80C203A
:1026600000F006F8BDE81040802000F001B800003E
:102670001CB500F0F00141F004028DF804200001C7
:102680008DF8051040F004018DF806108DF8070054
:1026900064200090042301AA4E210248FEF750F85E
:1026A0001CBD0000380000201CB500F0F00141F016
:1026B00005028DF8042041F0010100018DF805109C
:1026C00040F005018DF8061040F001008DF807007C
:1026D00064200090042301AA4E210248FEF730F83E
:1026E0001CBD00003800002010B5044602E0641C48
:1026F000FFF7DAFF20780028F9D110BDADF5467D4F
:10270000FEF7F2F8FFF7B6F9FFF72AF97B487A49A6
:10271000002401607A49C0E901144FF48041C0E906
:10272000034144618461C4610462FDF74FFF734853
:10273000744994304FF4E1350160C0E901540C262E
:10274000C460C0E904468461C461FEF72DFFFFF751
:1027500075F96A486C4954300160C0E90154C4609D
:10276000C0E904468461C461FEF71EFFFDF7EEFD7B
:10277000FFF76EFFDFF89481654C64250A264FF45D
:102780007A7900BFFFF746FFFFF722FF00F0DEF87F
:10279000607000F0DBF8A07000F0D8F8E07000F096
:1027A000D5F8207100F0D2F8A0812079E17840EAD4
:1027B00001202082A078617840EA0120E081802019
:1027C000FFF756FFE389228A52A183A8FFF726FD6F
:1027D000208AB0FBF5F16171B0FBF5F105FB110149
:1027E000B1FBF6F1A171B0FBF5F105FB1100B0FBF7
:1027F000F6F106FB1100E071E089B0FBF5F1217202
:10280000B0FBF5F105FB1101B1FBF6F16172B0FB14
:10281000F5F105FB1100B0FBF6F106FB1100A0720B
:1028200001214046FDF7C2FE0028E079627A217A54
:102830008DE80700A379627901D038A100E03BA1BF
:1028400003A8FFF7EBFC074682B22C4803A95430DB
:10285000FEF73DFF2948BAB203A99430FEF737FFCF
:1028600036A0FFF741FF208AB0FBF5F03030C0B250
:10287000FFF71AFF208AB0FBF5F105FB1100B0FB52
:10288000F6F03030FFF710FF2E20FFF70DFF208A03
:10289000B0FBF6F106FB11003030FFF705FF4320D7
:1028A000FFF702FF8020FFF7E3FE26A0FFF71CFFE3
:1028B000E089B0FBF5F03030C0B2FFF7F5FEE089FB
:1028C000B0FBF5F105FB1100B0FBF6F03030FFF77F
:1028D000EBFE2E20FFF7E8FEE089B0FBF6F106FBE9
:1028E00011003030FFF7E0FE2520FFF7DDFE4846FF
:1028F000FDF778FD46E70000005400403800002056
:10290000A08601000048004000440040000802404A
:102910000000002025642025640A00002564256449
:102920002E25642025642564310D0A002564256464
:102930002E25642025642564300D0A0054454D5031
:102940003A2D200052483A2D200000002DE9F04198
:10295000144E00244FF001084FF40067394630460A
:10296000FDF724FE0028F9D02820FDF711FD394697
:102970003046FDF71BFE0028C4F1070108FA01F0FC
:102980000ED02843C5B239463046FDF70FFE002869
:10299000F9D1641CE4B2082CE0D32846BDE8F081EC
:1029A0008543F0E70004024005484FF400610160F0
:1029B00000214160816001460248FDF725BD00000D
:1029C000240000200004024006484FF491410160B9
:1029D0000121416000218160C16001460248FDF78C
:1029E00013BD00002400002000040240000000008D
:1029F00000000000010203040607080900000000AF
:102A000001020304242A0008000000202400000022
:102A100064220008482A000824000020F40800006E
:102A20007422000800000000000000000000000008
:102A30000000000000000000010000001000000085
:082A4000000000000024F40076
:04000005080001D915
:00000001FF
