:020000040800F2
:10000000480A0020ED010008B32500088B220008F3
:10001000B125000845040008773000080000000002
:10002000000000000000000000000000172600088B
:10003000DD04000800000000B525000819260008AE
:10004000070200080702000807020008070200086C
:1000500007020008B7250008070200080702000889
:10006000070200080702000807020008070200084C
:10007000070200080702000807020008070200083C
:10008000070200080702000807020008070200082C
:10009000070200080702000807020008070200081C
:1000A000070200080702000807020008070200080C
:1000B00007020008070200080702000807020008FC
:1000C00007020008070200080702000807020008EC
:1000D0000702000807020008992D0008A52D000856
:1000E00007020008B92500080702000807020008F7
:1000F00007020008070200080702000807020008BC
:1001000007020008070200080702000807020008AB
:10011000070200080702000807020008070200089B
:1001200049040008550400080702000807020008F7
:10013000070200080702000807020008070200087B
:10014000070200080702000807020008070200086B
:10015000070200080702000807020008070200085B
:10016000070200080702000807020008070200084B
:10017000070200080702000800000000000000005D
:10018000070200080702000807020008070200082B
:10019000070200080702000800000000070200082C
:1001A000070200080702000800000000000000002D
:1001B000070200080000000000000000070200081D
:1001C00007020008070200080702000807020008EB
:1001D0000702000807020008DFF80CD000F08CF8D6
:1001E0000048004799330008480A00200648804725
:1001F00006480047FEE7FEE7FEE7FEE7FEE7FEE70C
:10020000FEE7FEE7FEE7FEE7C1260008D901000889
:100210002DE9F05F0546002092469B46884606463B
:10022000814640241BE0284641464746224600F0CE
:1002300053F853465A46C01A914110D311461846F6
:10024000224600F03AF82D1A67EB01084F46224685
:100250000120002100F031F817EB00094E41201E6B
:10026000A4F10104DFDC484631462A464346BDE896
:10027000F09F40EA01039B0703D009E008C9121F61
:1002800008C0042AFAD203E011F8013B00F8013B50
:10029000521EF9D27047D2B201E000F8012B491E7C
:1002A000FBD270470022F6E710B513460A46044613
:1002B0001946FFF7F0FF204610BD202A04DB203A44
:1002C00000FA02F1002070479140C2F1200320FAA9
:1002D00003F3194390407047202A04DB203A21FAA7
:1002E00002F00021704721FA02F3D040C2F120024F
:1002F0009140084319467047064C074D06E0E068F8
:1003000040F0010394E8070098471034AC42F6D35C
:10031000FFF766FFFC3400081C350008464910B59D
:100320004A6822F440324A604A6843681A434A6085
:1003300001684A6822F480724A6001684A68036969
:1003400042EA03224A6001684A6822F040724A6029
:1003500001684A6883681A434A6001688A6822F41F
:1003600000628A6001688A68C3681A438A60816A89
:100370006FF07062D14201688A6822F070628A6010
:1003800001688A680CD0836A1A438A6001688A68A7
:1003900022F040528A6001688A68C36A1A4301E009
:1003A00022F040528A6001688A6822F002028A6064
:1003B00001688A68037E42EA43028A6090F820104E
:1003C000002901684A680FD042F400624A6001685F
:1003D0004A6822F460424A6001684A68174C436ADE
:1003E00004EB43331A4301E022F400624A600168DF
:1003F000CA6A22F47002CA620168CA6A838B104C0E
:1004000004EB03531A43CA6201688A6822F400723B
:100410008A6001688A6890F8303042EA43228A6034
:1004200001688A6822F480628A6001688A6840698B
:1004300042EA8020886010BD0023014000E0FFFFF9
:100440000000F0FFFEE70000014800F083B9000063
:1004500088050020014800F07DB90000E805002073
:1004600001681823CAB2103AB2FBF3F2054B6FF3DE
:100470000901032A9B5CC36500D9091D81650846F3
:1004800070470000DC34000810B5014600208B697D
:100490008A6A4FF0C07453B1B3F5005F15D072B1E2
:1004A000012A0CD0022A0AD0032A09D104E01AB189
:1004B000012A06D0022A03D1C96AC90100D5012048
:1004C00010BDC96AA142FAD010BD002AF7D0012A96
:1004D000F2D0022AF3D0032AF3D010BD7047704740
:1004E00078B50024009490F83C20012A19D001220C
:1004F00080F83C200A6807230568092A13D9EE68AA
:100500000A3A02EB420293409E43EE600B788A68FF
:100510000A3B03EB43039A400368DD682A43DA6031
:1005200010E0022078BD2E6902EB420293409E4308
:100530002E610B788A6803EB43039A4003681D69B8
:100540002A431A614A681F23072A13D205686E6B73
:10055000521E02EB820293409E436E630A8893B25E
:100560000A79521E02EB820293400268556B2B43BC
:10057000536327E005680D2A12D22E6BD21F02EBBF
:10058000820293409E432E630B790A88DB1F92B24E
:1005900003EB83039A4003681D6B2A431A6311E03F
:1005A000EE6A0D3A02EB820293409E43EE620B79B3
:1005B0000A880D3B92B203EB83039A400368DD6A1D
:1005C0002A43DA621B4B0568194A9D420AD10D681D
:1005D000122D07D1556825F400055560556845F47E
:1005E0008005556005689D421DD1134D0B68AB42D7
:1005F00001D0112B17D1536823F480035360536843
:1006000043F4000353600968A9420CD10B490C4A1A
:100610000968B1FBF2F101EB8101490000E0491EDC
:1006200000910029FBD180F83C40002078BD0000FB
:10063000002301400020014012000010180000209B
:1006400040420F0070B504004FF0000503D0206C4D
:10065000002610B107E0012070BD204600F01CF814
:10066000666484F83C60206CC00610D4206C20F4D2
:10067000885040F0020020642046FFF74FFE666479
:10068000206C20F0020040F00100206400E0012511
:1006900084F83C60284670BD70B586B006461421CB
:1006A0006846FFF7FFFD1D493068884233D11C487A
:1006B0000025016841F480710160006800F48070D9
:1006C000059017481438016841F004010160006882
:1006D000694600F004000590012000900320CDE958
:1006E0000105104800F082F9104C0F48C4E90005DC
:1006F000A560C014E560C4E904508000A061401109
:10070000C4E907052046656200F0F4F808B1FFF778
:10071000E6FEB463A66306B070BD00000020014091
:10072000443802400008024010640240880500205E
:1007300090F83510022903D08021416501207047CF
:10074000052180F835100068016821F00101016081
:10075000002070472DE9F84304464FF00009CDF81A
:10076000009063484FF41651A56D0068B0FBF1F797
:100770002E6894F85C10082000FA01F131420FD085
:1007800021680A6852070BD50A6822F004020A6041
:1007900094F85C108840A860606D40F001006065CE
:1007A00094F85C104FF0010808FA01F0304208D0CC
:1007B00021684969090604D5A860606D40F002000F
:1007C000606594F85C1004208840304208D02168AD
:1007D0000968890704D5A860606D40F00400606571
:1007E00094F85C1010208840304218D021680968C5
:1007F000090714D5A86020680168490304D500687A
:10080000000308D5A16C07E00168C90503D401689D
:1008100021F008010160216C09B12046884794F855
:100820005C1020208840304231D021680968C90618
:100830002DD5A86094F8350005282068016806D0F9
:10084000490347D5006800031DD4616C1CE021F00A
:10085000160101602068416921F080014161206C2E
:1008600008B9A06C20B12068016821F0080101607E
:1008700094F85C103F208840A86084F8349084F895
:100880003580216D1FE0E16B09B120468847606D1E
:1008900000282BD0606DC00714D0052084F83500E7
:1008A0002068016821F0010101600098401C00905F
:1008B000B84203D820680068C007F6D184F83490A5
:1008C00084F83580E16C002910D001B02046BDE8E5
:1008D000F04308470168C905D5D4016821F010012B
:1008E000016084F8349084F83580CCE7BDE8F88363
:1008F000180000202DE9F041044600F04FF90646AB
:100900005CB1002584F83450022084F8350020685A
:10091000016821F0010101600DE00120BDE8F081D6
:1009200000F03CF9801B052805D9202060650320D4
:1009300084F83500F2E720680068C007F0D122682B
:10094000116820480140D4E901031843D4E9033673
:100950003343184363691843A3691843E369184391
:10096000236A18430843616A042903D1D4E90B13AD
:1009700019430843106020684069666A20F0070147
:1009800030460E43012704280CD1A06A0643E06AD2
:1009900040B12046FFF778FD20B14020606584F823
:1009A0003570BAE7206846612046FFF759FD94F894
:1009B0005C203F2191408160656584F8357000209E
:1009C000ACE700003F8010E070B5044600F0E6F8A8
:1009D0000546601C02D004480078044400F0DEF8AC
:1009E000401BA042FAD370BD0C0000202DE9F84F47
:1009F000DFF874B100224FF001084FF0030A4FF006
:100A00000F090BF1040E00BF0B6808FA02F4234033
:100A1000A3426ED14D68022D01D0122D0ED1D50802
:100A200000EB850CDCF820505607F70E09FA07F6A4
:100A3000B5430E69BE402E43CCF8206006685500D1
:100A40000F790AFA05FC07F0030726EA0C06AF4007
:100A5000374307604E68012E05D0022E03D0112EB9
:100A600001D0122E0ED18668CF6826EA0C06AF4060
:100A7000374387604668A6430C79C4F3001494405A
:100A800034434460C4688E6824EA0C04AE402643B4
:100A9000C6604C68E40060D5344C256845F4804558
:100AA0002560246822F0030504F480440094304C4F
:100AB0002E19D6F8084895072F0F09FA07F5AC4309
:100AC0002C4DA84201D100251FE02B4DA84201D199
:100AD00001251AE0294DA84201D1022515E0284D33
:100AE000A84201D1032510E0264DA84202D10425D9
:100AF0000BE032E0244DA84201D1052505E0234D4D
:100B0000A84201D1062500E00725BD402543C6F8CF
:100B10000858DBF800405D464E689C43F60300D55C
:100B20001C432C60DEF8004075464E689C43B603BB
:100B300000D51C432C600C4D08352C684E689C4336
:100B4000F60200D51C432C60074D0C352C684E680E
:100B50009C43B60200D51C432C60521C102AFFF4A3
:100B600053AFBDE8F88F0000003C0140443802401C
:100B70000030014000000240000402400008024032
:100B8000000C024000100240001402400018024015
:100B90000AB1816170470904FBE7000001488068E1
:100BA000704700000C000020024881680278114460
:100BB000816070470C0000200B4810B5016841F4BB
:100BC00000710160016841F480610160016841F4D5
:100BD00080710160032000F07BF8002000F006F82F
:100BE00000F024F8002010BD003C024070B50D4D0F
:100BF00004464FF47A712878B1FBF0F00A4909688D
:100C0000B1FBF0F000F0D7FF48B9102C07D200225A
:100C10002146501E00F03CF800206C6070BD0120A1
:100C200070BD00000C00002018000020104808B51E
:100C3000016841F480410160006800F48040009048
:100C40000B48001F016841F080510160006800F00E
:100C500080500090052000F03BF800220221052082
:100C600000F016F8BDE80840052000F003B80000C9
:100C700044380240002809DB00F01F0201219140A6
:100C80004009800000F1E020C0F80011704700002A
:100C9000F0B40E4B1B680C46C3F30223C3F10705E7
:100CA000042D00D90425191D072901D2002300E0D5
:100CB000DB1E012606FA05F1491E214099409E409F
:100CC000761E16403143F0BC02F0D6B90CED00E0C0
:100CD000064900F0070208684FF6FF03184040EA93
:100CE0000220034A10430860704700000CED00E04A
:100CF0000000FA0501220168C0F8FC23002280F8F8
:100D0000F423886940F000608861486D024A10430E
:100D10004865002070470000030000102DE9F041F5
:100D20008AB0040005D094F8BD032668002520B1E0
:100D300008E001200AB0BDE8F08184F8BC532046E9
:100D400000F064F8032084F8BD03F06BC00500D404
:100D50002561206802F050F904F11001282288462C
:100D60006846FFF786FA94E80F0002F021F80226A1
:100D7000C8BB0021206802F067F9002001270EE0BF
:100D8000C0EBC00104EB810181F83D7001F83C0F1C
:100D9000C880CD708D60CD60401CC0B24D6161686F
:100DA0008142EDD8002011E0C0EBC00104EB8101CD
:100DB00081F8FD5181F8FC0181F8FF51C1F804521E
:100DC000C1F80852401CC0B2C1F81052616881429B
:100DD000EAD8282241466846FFF74BFA94E80F000C
:100DE00002F048F810B184F8BD63A2E784F83850E7
:100DF00084F8BD73606A012802D12046FFF77AFFAC
:100E0000206802F02BF8002094E7000030B587B08E
:100E1000044614216846FFF745FA2068B0F1A04F58
:100E200030D119480024016841F0010101600068D7
:100E3000164D00F0010005904FF4E850009002209C
:100E4000CDE90104032003900A2004906946284656
:100E5000FFF7CCFD6815CDE90004694628460294E9
:100E6000FFF7C4FD0848001D016841F080010160E2
:100E700005481430016841F480410160006800F4C5
:100E80008040059007B030BD30380240000002407D
:100E90002DE9F84F044600780027C34DC00708D05D
:100EA0002868E16920F0C06008432860E06900B963
:100EB00001272078800708D52868216A20F0C050D3
:100EC00008432860206A00B90127208881046FF058
:100ED000FF0015D52968A26C21F440111143296047
:100EE000A16C19B1B1F5001F02D009E0012707E09C
:100EF0002968626921F4F85100EB0222114329604C
:100F00002188490415D52968E26C21F44001114378
:100F10002960E16C19B1B1F5000F02D009E0012799
:100F200007E02968626921F4F85100EB02200143CF
:100F3000296020784FF00009000755D59A484C38B1
:100F4000016841F0805101600068DFF8608200F0C4
:100F500080500090D8F8001041F48071C8F800105B
:100F6000FFF71CFE064604E0FFF718FE801B022870
:100F70006FD8D8F80000C005F6D58B4E1C3E3068FF
:100F800010F440701FD0A18C01F4407181421AD03E
:100F90003068012220F4407185480260C0F800905A
:100FA00031603068C0070ED0FFF7F8FD804641F28F
:100FB000883A05E0FFF7F2FDA0EB0801514548D85B
:100FC00030688007F6D5616A7748C1F3012284381A
:100FD000032A36D0016821F4F81101603068A18C31
:100FE000C1F30B01084330602078DFF8C8A1400747
:100FF00003D594F85410CAF8E01120786E4EC0065C
:1010000005D53068E16A20F440000843306020785C
:101010004FF00068800609D53068216B20F0006031
:1010200008433060206B404500D1012720784006FE
:1010300005D53068A16A20F080500843306067B958
:1010400008E002685D4B22F4F81219400A4302607E
:10105000C4E773E02068802877D1DFF864B1CBF86B
:101060006890FFF79BFD504F81468C3F06E000BF24
:10107000FFF794FDA0EB090002285FD83868000153
:10108000F6D4216DCAF8D81020684E49C20701D0A5
:10109000E2697AB1820701D5226A5AB1820602D585
:1010A000226B424506D040060FD5A06A68B9206B76
:1010B00040450AD1D4E9010240EA8210227B237C18
:1010C000120642EA0372104308602068820401D5C8
:1010D000A26C1AB1400415D5E06C98B90868D4E93F
:1010E000012342EA8312C0F30360237C000640EA36
:1010F000037002430A602868A26920F01F00521E94
:1011000010432860207800060AD5D4E9010240EA9D
:101110008210227B237C120642EA0372104308608D
:101120000120CBF86800FFF739FD80460AE000BFD8
:10113000FFF734FDA0EB0800022803D90320BDE827
:10114000F88F02E038680001F2D52088C00505D587
:101150002868616B20F000400843286020888005E3
:1011600005D52868A16B20F400400843286020883A
:10117000400505D52868E16B20F000400843286051
:101180002088000505D52868216C20F4804008439C
:1011900028602088C00405D53068616C20F040408C
:1011A000084330600020CAE78C38024000700040DD
:1011B000400E47420010474294380240FFFCFF0FA8
:1011C00000004742843802402DE9F0470E460500F2
:1011D00065D0DFF81481D8F80000F7B200F00F00F6
:1011E000B04207D288F80070D8F8000000F00F0075
:1011F000B04254D128683D4C810712D5400703D531
:10120000206840F4E05020602878000703D520686B
:1012100040F4604020602068A96820F0F000084396
:1012200020602878C0072DD0304968680839012827
:1012300012D0022813D0032811D009688907002989
:101240002DDA216821F0030101432160FFF7A6FC9C
:10125000814641F2883A0EE009688903EFE70968A0
:101260008901ECE7FFF79AFCA0EB0901514502D98F
:101270000320BDE8F0872068696800F00C00B0EB3F
:10128000810FEFD1D8F80010404601F00F01B142B4
:1012900007D90770006800F00F00B04201D00120AC
:1012A000E7E72878400705D52068E96820F4E05092
:1012B000084320602878000706D52068296920F4B3
:1012C000604040EAC100206000F036F82168084A1A
:1012D000C1F30311515CC840064908600020FFF7C4
:1012E00085FC0020C5E70000003C024008380240B1
:1012F000E434000818000020044805490068096823
:10130000044AC1F38221515CC84070471800002094
:1013100008380240F43400080448054900680968A8
:10132000044AC1F34231515CC840704718000020A4
:1013300008380240F4340008154810B5006810F071
:101340000C02144813D04110042A0FD0082A0ED1E1
:101350000F4C241F2268236802F03F025B0207D56E
:101360002068C0F38810A0FB010106E0084610BD0C
:101370002168C1F38811A1FB00010023FEF748FF9B
:101380002168C1F30141491C4900B0FBF1F010BDD7
:10139000083802400024F4002DE9F84F0546007893
:1013A000DFF800B3C04CC0074AD0DBF80010584645
:1013B000C1F38101012908D00068C0F3810002282F
:1013C0000AD1201D0068400206D52068800337D569
:1013D0006868002872D033E06868B0F5803F10D0AC
:1013E000B0F5A02F206810D020F480302060206855
:1013F00020F4802020606868A8B1FFF7CFFB064684
:101400000DE0206840F48030F4E740F48020206054
:10141000F7E700BFFFF7C2FB801B64286FD8206886
:101420008003F7D50CE0FFF7B9FB064605E000BFE7
:10143000FFF7B4FB801B6428F0D820688003F7D442
:101440002878DFF8688280074FF0000940D5DBF884
:101450000010584611F00C0F09D00068C0F381004D
:1014600002280BD18F48001F0068400206D4206874
:10147000800715D5E868012820D111E0E868B8B1E7
:101480000120C8F80000FFF789FB064605E000BF11
:10149000FFF784FB801B0228C0D820688007F7D59F
:1014A0002068296920F0F80040EAC10020600FE0C0
:1014B000C8F80090FFF772FB064606E0EFE000BFB9
:1014C000FFF76CFB801B022819D820688007F7D42F
:1014D0002878000722D5734E754869696C3679B152
:1014E00001210160FFF75AFB074604E0FFF756FBB6
:1014F000C01B022803D830688007F7D50EE089E0CA
:10150000C0F80090FFF74AFB074604E0FFF746FBF0
:10151000C01B02287ED830688007F7D4287840079F
:1015200068D5DFF880A100270AF1380ADAF8000050
:10153000C0000BD4DAF8001041F08051CAF8001056
:10154000DAF80000012700F080500090594E306812
:10155000C00510D4306840F480703060FFF71EFB87
:10156000009005E0FFF71AFB0099401A022851D8B5
:101570003068C005F6D54B4EA868683601280FD0F4
:101580000528306810D020F001003060306820F06D
:1015900004003060A868B8B1FFF700FB00900FE0CE
:1015A000306840F00100F4E740F004003060F7E7F5
:1015B000FFF7F4FA0099411A41F28830814266D867
:1015C00030688007F4D50EE0FFF7E8FA009007E0F6
:1015D000FFF7E4FA0099411A41F28830814256D867
:1015E00030688007F4D42FB1DAF8001021F0805170
:1015F000CAF80010A869D0B3DBF80010C1F381016C
:1016000002294CD00228484607D0C8F86000FFF7EE
:10161000C5FA00E03BE005463CE04746C8F86000FC
:10162000FFF7BCFA064604E0FFF7B8FA801B022871
:101630002DD820688001F7D4F5E907010843E9684F
:101640001D4A490802EB0141AA6841EA8211084398
:10165000297C40EA0160297D40EA01711148001FA0
:10166000016001203866FFF799FA054605E014E0AD
:10167000FFF794FA401B022809D820688001F7D5AB
:101680000BE000BFFFF78AFA401B022802D90320B3
:10169000BDE8F88F20688001F4D40020F8E701202D
:1016A000F6E70000083802400038024000004742D8
:1016B000800E4742007000400000FFFF704770B589
:1016C000037F012B26D00125057702234377046889
:1016D000A36840F60806B3430B43CA21616204685D
:1016E0005321616201680C6C24F400340C640168BD
:1016F0000C6C14430C6401688B6001688A6842F4C6
:1017000000628A600268FF215162457700210177FB
:10171000084670BD022070BD7047000010B5044639
:101720000068C168C9050CD58068C00409D5204689
:10173000FFF7F2FF2068C16801F0800161F4C07119
:10174000C1602068C16889050CD58068800409D50E
:101750002046FFF7B3FF2068C16801F0800161F403
:101760002071C16003494FF40030086001206077A8
:1017700010BD0000143C014070B5040002D0607F31
:1017800010B106E0012070BD00202077204600F057
:1017900049F8022060772168CA20486221685320F6
:1017A0004862204600F01AFFFF25042618BB206877
:1017B00081681B4A11408160216888686268104313
:1017C000D4E904231A43104388602168E068086163
:1017D00020680169228941EA024101612068C168EB
:1017E00021F08001C16020688068800607D420460F
:1017F00000F0C6F918B1206845626677C2E7206834
:10180000016C21F4802101642068016CA2691143FC
:1018100001642068456201206077002070BD0000EF
:10182000BFFF8FFF10B50068084988420CD10849F6
:1018300001200860002211462920FFF729FABDE89F
:1018400010402920FFF716BA10BD00000028004004
:101850003C0E4742F8B503465A480C464FF4FA414D
:101860000068B0FBF1F0491148430090187F01284F
:1018700063D001261E770220587718680025002AB9
:1018800080684FEA40605AD0002800DBE570A078FD
:101890002278E77840EA02406278E169120242EA7F
:1018A0000742104394F8202040EA0260084361692F
:1018B000A269084361681F681143CA227A621F68DF
:1018C00053227A62626AFF27B2F5807F1A684FF06E
:1018D000030C94684ED024F4007494601A68D468A1
:1018E00004F0800464F42074D4601A68009CB4F19D
:1018F000010ECDF800E05ED3D468A407F6D51062DF
:10190000186881641868816841F400718160186802
:10191000816841F4005181602B48016841F4003135
:10192000016029480830016841F4003101601868FD
:1019300047625E771D770020F8BD0220F8BD0028C1
:1019400000DBE570207800F03DFE0204607800F0D6
:1019500039FE42EA0022A07800F034FE0243E0782B
:1019600042EA004294F8200000F02CFE42EA0060B7
:10197000E1699BE724F4807494601A68D46804F0E9
:10198000800464F4C074D4601A68009CB4F1010E41
:10199000CDF800E00FD3D468E407F6D0D061186822
:1019A00041641868816841F48071816018688168B9
:1019B00041F48051AFE7576283F81DC01D770320C3
:1019C000F8BD000018000020003C01402DE9F04760
:1019D0000446007F0B4601281FD04FF0010984F810
:1019E0001C9002206077DAB19878D97840EA0145F6
:1019F00058781978000240EA413005432168CA202E
:101A00004862216853204862204600F0E7FD002626
:101A1000FF274FF0040860BB1AE00220BDE8F08702
:101A20005878C10603D500F0EF000A305870D87816
:101A300000F0C8FD0204587800F0C4FD42EA00221C
:101A4000987800F0BFFD0243187842EA4035D5E7A8
:101A50000F480540206845602068C16821F080017A
:101A6000C1602068806880060AD4204600F088F8AB
:101A700030B12068476284F81D8026770120CDE7C9
:101A80002068476284F81D9026770020C6E7000092
:101A90003FFFFF002DE9F0470446007F0D46012877
:101AA00027D04FF0010A84F81CA00220607720683C
:101AB000002680684FEA4060F2B1002800DBEE703B
:101AC000A878297840EA01476878E978000240EA76
:101AD000014007432168CA204862216853204862B8
:101AE000204600F07BFD4FF0FF084FF00409A0BB3B
:101AF00016E00220BDE8F087002800DBEE702878B1
:101B000000F060FD0204687800F05CFD42EA00220B
:101B1000A87800F057FD0243E87842EA0047D9E789
:101B200016480740206807602068816821F48021FA
:101B30008160D5E90301084321688A681043886001
:101B40002068C16821F08001C1602068806880063B
:101B50000BD4204600F014F838B12168C1F8248075
:101B600084F81D9026770120C4E72168C1F82480FD
:101B700084F81DA026770020BCE700007F7F7F004F
:101B800070B504460068C16821F0A001C160FFF78C
:101B900005F805464FF47A7607E000BFFEF7FEFF32
:101BA000401BB04201D9032070BD2068C068800688
:101BB000F4D5002070BD10B5401EB0F1807F01D378
:101BC000012010BD4FF0E02460610F21601701F08B
:101BD00053FA0020A06107202061002010BD10B53D
:101BE00090F83C20012A22D0012280F83C20CA68CB
:101BF0008C6822F4407222434C6822F480622243B3
:101C00000C6822F4006222430C6922F480522243C1
:101C10004C6922F400522243C969002322F4804215
:101C20000A4301684A6480F83C30002010BD02205D
:101C300010BD70B590F83C20012A19D0012400F89D
:101C40003C4F0222427050F83C3C5A689D6822F09A
:101C500070060A684968324325F0800529435A60B6
:101C600050F83C2C9160447000210170084670BD12
:101C7000022070BD10B586B0044614216846FEF7F8
:101C800011FB0E492068884216D10D4800210268D8
:101C900042F010020260006800F0100005904FF45E
:101CA000007000900220CDE901010120CDE9031070
:101CB00069460448FEF79AFE06B010BD00000140D8
:101CC000303802400010024070B5044690F83C00E5
:101CD0000D4601280DD0012684F83C60022084F8CE
:101CE0003D0042B1042A18D0082A2AD00C2A4DD12E
:101CF00039E0022070BD206800F070FD2068816925
:101D000041F0080181612068816921F0040181614D
:101D1000206881692A69114311E0206800F08EFD76
:101D20002068816941F4006181612068816921F442
:101D300080618161206881692A6941EA02218161AB
:101D400024E0206800F0B0FD2068C16941F008017E
:101D5000C1612068C16921F00401C1612068C169C5
:101D60002A69114311E0206800F0D2FD2068C169A2
:101D700041F40061C1612068C16921F48061C161E1
:101D80002068C1692A6941EA0221C16184F83D6085
:101D9000002084F83C0070BD10B5040003D094F816
:101DA0003D0010B107E0012010BD002084F83C0088
:101DB000204600F00DF8022084F83D00211D206827
:101DC00000F0A8FC012084F83D00002010BD0000B8
:101DD00038B5054600681449884223D113490020CC
:101DE0000A6842F001020A600968124C01F0010120
:101DF00000910F4921604FF0406161604021C4E9CA
:101E000002104901C4E904018900A1614911C4E932
:101E1000071060622046FEF76DFD08B1FEF75FFB1C
:101E20006C62A56338BD00000000014044380240E8
:101E300028640240E80500207047000070B5026881
:101E400004461068D168536910F00F0F50D003F0AA
:101E5000010501F4907635435DD0C20705D0CA056F
:101E600003D5E26B42F00102E263420705D5DA07CF
:101E700003D0E26B42F00202E263820705D5DA0783
:101E800003D0E26B42F00402E263020705D5DA07F1
:101E900003D0E26B42F00802E263E26B002A33D027
:101EA000800604D5880602D5204600F06FFD206824
:101EB0004069E16BC0F38010090700D428B32046C5
:101EC00000F056FD2068416949061AD5416921F0A4
:101ED00040014161606BA0B11B490165606BFEF779
:101EE00027FC002810D0606B016DBDE870400847EA
:101EF000830610D58B060ED52046BDE8704000F055
:101F000045BD2046FFF798FF70BD2046FFF794FFC0
:101F10000020E06370BD030606D50B0604D52046FD
:101F2000BDE8704000F0D4BE4006F3D54806F1D5B8
:101F3000D168204621F04001D160202184F8391079
:101F400000F0A2F970BD00006129000870B504001E
:101F500004D094F83900002510B106E0012070BDCE
:101F600084F83850204600F023F8242084F8390003
:101F70002068C16821F40051C160204600F052FD84
:101F80002068016921F4904101612068416921F0D4
:101F90002A0141612068C16841F40051C160E563D4
:101FA000202084F8390084F83A00002070BD000039
:101FB000F0B587B0044614216846FEF773F9284847
:101FC000264F2668264910380222012303240725BC
:101FD000BE421DD10E6846F400360E60096801F459
:101FE00000310591016841F0010101600068694616
:101FF00000F0010005900C208DE83D001948FEF727
:10200000F5FC002201212620FEF742FE262020E0DA
:10201000154FBE421FD10E6846F480260E60096837
:1020200001F480210591016841F008010160006818
:10203000694600F0080005904FF440708DE83D00BF
:102040000A48FEF7D3FC002201212720FEF720FEDC
:102050002720FEF70FFE07B0F0BD0000004400404F
:10206000403802400000024000480040000C02409E
:1020700090F83A30202B22D1F9B1F2B190F83830F3
:10208000012B1CD081628285C2850021C16322227E
:1020900080F83A2080F838100168CA6842F48072EB
:1020A000CA6001684A6942F001024A610068C16879
:1020B00041F02001C16000207047012070470220DC
:1020C00070470000F8B500682A494FF0FF36884293
:1020D0004FF001023ED12849A1F59160FFF7C8FFFA
:1020E0002548264C00F12805017820680A29295442
:1020F00002D0401C2060F8BD1F4982B2283133460F
:10210000A1F58E6000F044F81DA0334600680090F1
:10211000022269461B4800F03BF8E8790026312886
:1021200008D0606880B1666001F0BCF9E8793138A8
:10213000A0600DE000F0BFFF0121002001F016F9C2
:1021400011A001F01EF903E00120606001F08EF99A
:102150002660F8BD08490B481431FFF789FF01B02C
:102160003346BDE8F040044901221431A1F29C40FD
:1021700000F00EB8004400404C0500200000002094
:102180000D0A000004010020414C41524D21000085
:102190002DE9F843044690F839001F4616460D46CF
:1021A000202850D1A5B19EB194F8380001284AD01A
:1021B000012084F838004FF00008C4F83C8021204A
:1021C00084F83900FEF7EAFCA6848146E68426E01E
:1021D0000120BDE8F883E08C401EE084A0684B46F7
:1021E000B0F5805F4FF000024FF08001204600976D
:1021F00003D000F09EFDE8B90DE000F09AFDC8B9EB
:1022000028882168C0F308004860206908B16D1C67
:1022100005E0AD1C03E0216815F8010B4860E08C77
:102220000028D8D14B46002240212046009700F0DC
:1022300080FD08B10320CCE7202084F8390084F821
:1022400038800020C5E70220C3E790F83930202B02
:1022500018D1A9B1A2B190F83830012B12D0016287
:102260008284C2840021C163212280F8392080F851
:1022700038100068C16841F08001C16000207047DB
:1022800001207047022070477047FEE71FB500210C
:1022900012480091019102910F4A039102604FF49C
:1022A0008032C0E9012101240161047680F8201008
:1022B0000B4AC0E90A21C461C16080F83040446122
:1022C000FEF7C0F90A20CDE9000406200290694615
:1022D0000248FEF705F91FBD002001401C00002048
:1022E0000100000F2DE9F04F87B014216846FDF77B
:1022F000D9FF4F480024016841F0040101600168E2
:1023000001F004010591016841F08001016001685C
:1023100001F080010591016841F00101016001684F
:1023200001F001010591016841F0020101600168BD
:1023300001F002010591016841F02001016001688E
:1023400001F020010591016841F010010160016870
:1023500001F010010591016841F008010160016878
:1023600001F008010591016841F040010160006839
:10237000DFF8C08000F0400044F2810505900022A3
:1023800029464046FEF704FCDFF8AC904FF4804647
:10239000002231464846FEF7FBFBDFF8A0A04FF4D1
:1023A0002057002239465046FEF7F2FBDFF890B086
:1023B000002240215846FEF7EBFB00950125CDE9B0
:1023C0000154694640460394FEF710FB0096CDE9A0
:1023D0000154694648460394FEF708FB0097CDE98F
:1023E0000154694650460394FEF700FB40200090DC
:1023F000CDE90154694658460394FEF7F7FA802068
:10240000CDE90004694658460294FEF7EFFA4FF40E
:10241000844000900220CDE90104032003900820AD
:10242000049069465846FEF7E1FA07B0BDE8F08F20
:102430003038024000040240001402400010024004
:102440000018024030B591B014210AA8FDF72AFF08
:102450000024282168460F94FDF724FF24482349CF
:10246000C0E900147F218160FF21C0E903144461A9
:102470008461FFF781F98DF828408DF829408DF8A7
:102480002A400D9401220AA919480E94FFF702FB75
:1024900005258DF83C508DF83D5017208DF83E00F5
:1024A0008DF83F4001220FA91148FFF78FFA8DF8F0
:1024B00000408DF8014015208DF80200019480073E
:1024C000CDE90640049480150394099005948DF895
:1024D0002050012269460648FFF7BCF90022114648
:1024E0000348FFF7ECF811B030BD000000280040B1
:1024F0006400002010B592B000240F941C2108A89D
:102500001094FDF7CFFE20216846FDF7CBFE1C4856
:102510001A4901604FF41651C0E9011440F6FF71E9
:10252000C0E9031444618461FFF736FC0F940FA9DE
:1025300013481094FFF77DFB6020089041F287302C
:10254000CDE909040B940C940D94002208A90C48C1
:102550000E94FFF7B9FB00944FF40050CDE904400E
:10256000029401940394694605480794FFF737FBEA
:102570000348FFF77FFB12B010BD000000000140D0
:102580008400002009484FF0A0410222016006218A
:1025900041600021C0E9032182610122C0E90721D5
:1025A000C0E90912C0E90B21FEF7B8BB44010020C5
:1025B000FEE77047704770470148FFF7AFB800006B
:1025C00064000020002102E00A38C0B2491C0A2839
:1025D000FAD2090740EA11607047000070B504465E
:1025E0000068C168490614D44FF0FF31C160FEF79E
:1025F000D5FA05464FF47A7607E000BFFEF7CEFA2B
:10260000401BB04201D9032070BD2068C06840065D
:10261000F4D5002070BD7047FEF7C6BA30B5A9B03A
:10262000342116A8FDF73EFE142123A8FDF73AFE3B
:1026300058216846FDF736FE1F480024016841F026
:1026400080510160006800F0805028901B480168AC
:1026500041F4404101600068022500F440402890A8
:10266000092016904FF4A02017900120CDE91B05FA
:1026700080051D9008204FF4C071CDE91E01042192
:10268000CDE92010229516A8FEF786FE0F20CDE991
:102690002305E802CDE92540032123A82794FEF76E
:1026A00093FD28200090280209900C946846FEF7BC
:1026B000EFFB29B030BD0000403802400070004000
:1026C0001048016841F4700101600F48016841F051
:1026D000010101600C4A00210832116002680B4BB5
:1026E0001A400260031D0A4A1A60026822F480221E
:1026F000026005480C3001600249580680390860C4
:102700007047000088ED00E000380240FFFFF6FE51
:1027100010300024F0B50268254C264D264E274F78
:10272000274B4FF0804CA04209D0604507D0A8420B
:1027300005D0B04203D0B84201D0984204D122F073
:10274000700E4A6842EA0E02A0421BD0604519D0C2
:10275000A84217D0B04215D0B84213D0984211D039
:10276000184DA8420ED0184DA8420BD0174DA842C4
:1027700008D0174DA84205D0164DA84202D0164DDC
:10278000A84203D122F44075CA682A434D6922F059
:1027900080022A4302608A68C2620A688262A0429A
:1027A00001D0984201D10969016301214161F0BD65
:1027B000000001400004004000080040000C004000
:1027C0000004014000400140004401400048014035
:1027D00000180040001C004000200040F0B5026AD4
:1027E00022F001020262036A42688469124E24F0F8
:1027F00073050C682C4323F002058B682B430D4DA9
:10280000A84201D0B04205D123F00807CB683B4372
:1028100023F00403A84201D0B04205D14D6922F44F
:10282000407215438A692A43426084614968416362
:102830000362F0BD0000014000040140F0B5026AEF
:1028400022F010020262026A436884690D6824F46F
:10285000E64444EA05248D6822F0200242EA05128B
:102860000F4D104EA84201D0B04206D1CF6822F0E1
:10287000800242EA071222F04002A84201D0B04290
:1028800007D14D6923F4406343EA85038D6943EA28
:10289000850343608461496881630262F0BD000082
:1028A0000000014000040140F0B5026A22F4807289
:1028B0000262026A4368C46922F4007224F073055C
:1028C0000C68124E2C438D6842EA05220E4DA84238
:1028D00001D0B04206D1CF6822F4006242EA07225A
:1028E00022F48062A84201D0B04207D14D6923F49E
:1028F000405343EA05138D6943EA05134360C461FD
:102900004968C1630262F0BD00000140000401405B
:1029100030B5026A22F480520262046A4268C369D6
:102920000D6823F4E64343EA05238D6824F400543C
:1029300044EA0534084DA84202D0084DA84204D10B
:102940004D6922F4804242EA85124260C3614968BF
:102950000164046230BD0000000001400004014039
:1029600010B5806B0021C185C184FFF765FA10BDE9
:102970000168CA6822F49072CA6001684A6922F04C
:1029800001024A61202180F83A10704710B590F892
:102990003A10222901D0022010BD8168B1F5805F74
:1029A00011D00169002901681FD0496801F07F0337
:1029B000816A4A1C82620B70C18D491E0904090C90
:1029C000C18518D02BE00269816A002A026852682A
:1029D00005D0D2B20A80816A491C8162ECE7C2F359
:1029E00008020A80816A891CF7E74A68816A4B1CE1
:1029F00083620A70E0E70168CA6822F02002CA60B8
:102A00000168CA6822F48072CA6001684A6922F0CB
:102A100001024A61202180F83A10FFF753FB0020A1
:102A200010BD00002DE9F041044600680169E2682C
:102A300021F44051114301612169A068E269084312
:102A40006169114322680843D16849F20C639943D4
:102A50000143D16020684169A26921F440711143AA
:102A60004161E2696425B2F5004F974897492268B1
:102A70004FF032083FD08A4201D082427CD1FEF72B
:102A80004BFC00EBC00101EB001061688900B0FB5A
:102A9000F1F6FEF741FC00EBC00101EB00106168AC
:102AA0008900B0FBF1F0B0FBF5F06FF0180148437E
:102AB00006EB800108EB0110B0FBF5F000F0F0062A
:102AC000FEF72AFC00EBC00101EB001061688900F1
:102AD000B0FBF1F0B0FBF5F006EB0016FEF71CFCC6
:102AE00000EBC00101EB001061688900B0FBF1F759
:102AF000FEF712FCD2E08A4201D082423DD1FEF7BD
:102B00000BFC00EBC00101EB001061684900B0FB59
:102B1000F1F0B0FBF5F00601FEF7FEFB00EBC001A3
:102B200001EB001061684900B0FBF1F7FEF7F4FB20
:102B300000EBC00101EB001061684900B0FBF1F04F
:102B4000B0FBF5F06FF01801484307EB800108EB8C
:102B5000C100B0FBF5F000F0F80006EB4006FEF710
:102B6000DBFB00EBC00101EB001061684900B0FB2A
:102B7000F1F7FEF7D1FB3CE055E0FEF7BDFB00EBC3
:102B8000C00101EB001061684900B0FBF1F0B0FB3F
:102B9000F5F00601FEF7B0FB00EBC00101EB001001
:102BA00061684900B0FBF1F7FEF7A6FB00EBC0013E
:102BB00001EB001061684900B0FBF1F0B0FBF5F0EB
:102BC0006FF01801484307EB800108EBC100B0FB30
:102BD000F5F000F0F80006EB4006FEF78DFB00EB89
:102BE000C00101EB001061684900B0FBF1F7FEF78E
:102BF00083FB00EBC00101EB001061684900B0FBF2
:102C0000F1F0B0FBF5F06FF01801484307EB8001DD
:102C100008EBC100B0FBF5F000F00700216830447C
:102C20008860BDE8F081FEF767FB00EBC00101EBB7
:102C3000001061688900B0FBF1F6FEF75DFB00EB68
:102C4000C00101EB001061688900B0FBF1F0B0FB3E
:102C5000F5F06FF01801484306EB800108EB011016
:102C6000B0FBF5F000F0F006FEF746FB00EBC0010C
:102C700001EB001061688900B0FBF1F0B0FBF5F0EA
:102C800006EB0016FEF738FB00EBC00101EB00106D
:102C900061688900B0FBF1F7FEF72EFB00EBC00185
:102CA00001EB001061688900B0FBF1F0B0FBF5F0BA
:102CB0006FF01801484307EB800108EB0110B0FBEF
:102CC000F5F000F00F00A9E70014014000100140EA
:102CD00090F83910212901D0022070478168B1F5A0
:102CE000805F016A0BD04A1C026202680978516059
:102CF000C18C491E0904090CC1840ED017E0098853
:102D00000268C1F30801516001690029016A02D01B
:102D1000491C0162ECE7891CFBE70168CA6822F0E4
:102D20008002CA600068C16841F04001C1600020B3
:102D300070472DE9F041984617460E460446069D19
:102D40001DE0681C1BD02DB1FDF728FFA0EB08008B
:102D5000A84214D92068C16821F4D071C1602068EC
:102D6000416921F001014161202084F8390084F893
:102D70003A00002084F838000320BDE8F081206884
:102D8000006836EA000004D00020B842D9D0002004
:102D9000F3E70120F9E700000148FFF74FB8000012
:102DA000C40000200148FFF749B8000004010020DA
:102DB00070B5044606990A9E049D0D98012916D007
:102DC000E06840F04000E060204600F02BF8A16B86
:102DD0001EB321F48031A163012D07D1A16841F018
:102DE0000601A160A16841F02001A16070BDA16B46
:102DF00021F48031A163E168094A1140E160E16892
:102E000021F44011E160012803D1E06840F4801012
:102E1000E060204600F006F8DEE741F48031DAE7B2
:102E2000BFFFBDFF01220C4902E0521C8A420BD8B1
:102E30000369002BF9DA026942F001020261012202
:102E400004E0521C8A4201D9032070470369DB0762
:102E5000F7D1002070470000400D030010B5D0F8F6
:102E6000041841F00201C0F804180320FDF7ACFD7E
:102E7000002010BD2DE9F04F0025DDE90BCB0E46FB
:102E80000446DDF84090099F2846294604EB80025D
:102E9000C2F80411401C0F28F8D32046A06BB9F1EA
:102EA000000F13D040F40012A26308468846C4F80D
:102EB000000ED4F800182046C4F80018BCF1010F29
:102EC00010D0D0F8001841F0030110E020F40012F7
:102ED000A263206840F040022260206840F0800237
:102EE0002260E2E7D0F800180BB141F00101C0F810
:102EF0000018102100F096F800B10125204600F0DE
:102F000081F800B101254046C4F81088C4F814883F
:102F1000C4F81C8800214FF000634FF090484FF632
:102F20007F3A14E004EB4112D2F800C9BCF1000F63
:102F300006DA11B1C2F8008904E0C4F8003901E0F2
:102F4000C2F80009C2F81009C2F808A9491C8E424B
:102F5000E8D8002115E000BF04EB4112D2F800CB05
:102F6000BCF1000F06DA11B1C2F8008B04E0C4F81E
:102F7000003B01E0C2F8000BC2F8100BC2F808AB2E
:102F8000491C8E42E8D8D4F8101821F480722146EA
:102F9000C4F81028012F08D1134AC1F83028D1F8FD
:102FA0003018124A1143C4F83018A0616FF0804005
:102FB00060611FB9A06940F01000A061A0690C49D0
:102FC0000843A061BBF1000F03D0A06940F00800E6
:102FD000A061B9F1010F03D1A06906490843A061BE
:102FE0002846BDE8F08F00000001800003000100CA
:102FF00000383C8004000040816821F001018160BC
:1030000000207047002110220261054A491C9142AC
:1030100001D9032070470369DB06F7D4002070470D
:10302000400D03000022202343EA8111016105497C
:10303000521C8A4201D90320704703699B06F7D4CA
:1030400000207047400D030010B5C26822F0C04256
:10305000C260012902D029B1012010BDC16841F030
:10306000005102E0C16841F08041C1603220FDF7AB
:10307000ABFC002010BDFEE70907090E002804DBA9
:1030800000F1E02080F80014704700F00F0000F11C
:10309000E02080F8141D704702E008C8121F08C124
:1030A000002AFAD170477047002001E001C1121FC9
:1030B000002AFBD1704710B5012000F005F8BDE8EB
:1030C00010400220FDF780BC10B5044600222021EC
:1030D0000548FDF75DFD204600F0C8F8BDE810404A
:1030E0000520FDF771BC00000000024010B5044649
:1030F000012220210548FDF74BFD204600F0B6F8DF
:10310000BDE810400520FDF75FBC00000000024054
:1031100010B5094C012280212046FDF739FD05201C
:10312000FDF752FC002280212046FDF731FDBDE86D
:1031300010400520FDF748BC00000240134800B5D0
:10314000026887B0002142F001020260026802F0CA
:1031500001020592026842F02002026000680391B9
:1031600000F0200005904FF4704000900120CDE960
:10317000010169460648FDF739FCE02000906946E8
:103180000448FDF733FC07B000BD000030380240B2
:1031900000140240000002402DE9F041314C0022B1
:1031A00020212046FDF7F4FC002240212046FDF7B7
:1031B000EFFC002280212046FDF7EAFCE1142A4CB6
:1031C00000222046FDF7E4FCA514002229462046F3
:1031D000FDF7DEFC6E00002231462046FDF7D8FCEC
:1031E000AF00002239462046FDF7D2FC4FF40048DC
:1031F000002241462046FDF7CBFC0F20FDF7E4FB03
:10320000002229462046FDF7C3FC01223146204614
:10321000FDF7BEFC002239462046FDF7B9FC00222E
:1032200041462046FDF7B4FCFFF772FF0520FDF78D
:10323000CBFBFFF76DFF0520FDF7C6FBFFF768FF2F
:103240000520FDF7C1FB2820FFF73EFF0A20FDF710
:10325000BBFB0620FFF738FFBDE8F0410A20FDF771
:10326000B3BB000000000240001402402DE9F04111
:1032700090B000210A466E4608AC04AF00EBD07552
:1032800025F00103C01A44F82100032902DC46F8A6
:10329000210002E00B1F47F823006810491C521C54
:1032A000072AEBDD0498DFF8C0804FF48054012832
:1032B00049D0002221464046FDF76AFC05984FF4AC
:1032C0000055012841D0002229464046FDF760FC08
:1032D00006984FF48046012839D0002231464046F6
:1032E000FDF756FC07984FF40047012831D0002223
:1032F00039464046FDF74CFCFFF70AFF00980128CD
:1033000029D0002221464046FDF742FC01980128C1
:1033100023D0002229464046FDF73AFC02980128B6
:103320001DD0002231464046FDF732FC03980128AB
:1033300017D0002239464046FDF72AFCFFF7E8FE89
:1033400010B0BDE8F0810122B4E70122BCE7012200
:10335000C4E70122CCE70122D4E70122DAE7012207
:10336000E0E70122E6E7000000140240012905D051
:10337000022905D1C030C0B2FFF7A6BE8030FAE7FF
:10338000704710B5044602E0641CFFF7AFFE2078DA
:103390000028F9D110BD000008B5FDF70DFCFFF7BE
:1033A0003DF9FEF79FFF2C480024016841F480019D
:1033B00001600068224600F4800000902146382019
:1033C000FDF766FC3820FDF755FC00221146392038
:1033D000FDF75EFC3920FDF74DFC21481F494FF4F5
:1033E000E1350160C0E901540C26C460C0E904461F
:1033F0008461C461FEF7AAFDFFF7C4F818481949B3
:1034000040380160C0E90154C460C0E904468461E9
:10341000C461FEF79BFDFEF739FFFFF76BF8FFF77E
:1034200011F8142210490E48FEF70FFF0E4914221E
:10343000A1F59160FEF709FF01220B490848FEF74C
:1034400017FE09490122A1F59160FEF711FEFFF771
:1034500075FEFFF7A1FEFEE730380240004800404D
:1034600004010020004400404C05002010B5FFF787
:1034700022FE01210020FFF779FF07A0FFF781FF5F
:1034800002210020FFF772FF05480021C171BDE84D
:103490001040401DFFF775BF48756D3A00000000F1
:1034A0007405002010B5FFF706FE01210020FFF78C
:1034B0005DFF07A0FFF765FF02210020FFF756FF21
:1034C000054900204871BDE810400846FFF759BF84
:1034D00054656D703A000000740500200006101657
:1034E00000061016000000000000000001020304A6
:1034F0000607080900000000010203041C3500084B
:10350000000000201C00000098300008383500083A
:103510001C0000202C0A0000A83000080000000059
:103520000100000000000000010000001000000089
:08353000000000000024F4007B
:04000005080001D915
:00000001FF
